:1000000072C000009EC000009CC000009AC00000AA
:1000100098C0000096C0000094C0000092C000008C
:1000200090C000008EC000008CC000008AC000009C
:1000300088C0000086C0000084C0000082C00000AC
:1000400080C000007EC000007CC000007AC00000BC
:1000500078C0000076C0000074C000003BC50000FE
:1000600070C0000067C200009BC200006AC00000B0
:1000700068C0000066C0000064C0000062C00000EC
:1000800060C000005EC000005CC000005AC00000FC
:1000900058C0000056C0000054C0000052C000000C
:1000A00050C000004EC000004CC000004AC000001C
:1000B00048C0000046C0000044C0000042C000002C
:1000C00040C000003EC000003CC000003AC000003C
:1000D00038C0000036C0000034C0000032C000004C
:1000E00030C00000020311241FBECFEFD1E2DEBFFB
:1000F000CDBF00E00CBF12E0A0E0B2E0E2E4F1E12D
:1001000000E00BBF02C007900D92AE34B107D9F7E3
:1001100022E0AEE4B2E001C01D92A43FB207E1F7D5
:1001200010E0C6EED0E000E005C022970109FE0114
:100130000BBFF2D7C43ED10780E00807B1F7C0D4A7
:10014000FEC75ECF26E040E855E260E070E08EE456
:1001500092E090D165E072E08EE492E0DFC24F92CF
:100160005F926F927F92AF92BF92CF92DF92EF92A7
:10017000FF920F931F9381E049D02C01662457FC16
:100180006094762C1F921F921F9281E28F93A12C74
:10019000B12C65011AEFE12EF12C00E010E023EB09
:1001A00031E040E050E0C301B20144D46B017C0176
:1001B00067E172E08EE492E0A6D2C301B2013AD6C2
:1001C000AB01BC0122E030E08EE492E022D460E298
:1001D00072E08EE492E097D20F900F900F900F9004
:1001E000C701B60127D6AB01BC0122E030E08EE4A6
:1001F00092E01F910F91FF90EF90DF90CF90BF9012
:10020000AF907F906F905F904F9004C4863308F05A
:10021000865320917B00982F9870277F922B909384
:100220007B0087702091040290E4299F90011124A3
:10023000822B80937C0080917A00806480937A0086
:1002400080917A0086FDFCCF809178002091790022
:1002500090E0922B0895FC01818D228D90E0805CCE
:100260009F4F821B91098F7399270895FC01918DEF
:10027000828D981731F0828DE80FF11D858D90E009
:1002800008958FEF9FEF0895FC01918D828D98174F
:1002900061F0828DDF01A80FB11D5D968C91928D6A
:1002A0009F5F9F73928F90E008958FEF9FEF089567
:1002B00089EF92E0892B39F080E090E0892B19F0EA
:1002C00098D1811125C080E090E0892B41F080E039
:1002D00090E0892B21F00E94000081111CC080E079
:1002E00090E0892B41F080E090E0892B21F00E9482
:1002F0000000811113C080E090E0892BA1F080E024
:1003000090E0892B81F00E94000081110AC00895BD
:100310000E940000D8CF0E940000E1CF0E940000A0
:10032000EACF0C9400000895FC01848DDF01A80F32
:10033000B11DA35ABF4F2C91848D90E001968F730D
:100340009927848FA689B7892C93A089B1898C912C
:1003500080648C93938D848D981306C00288F389F2
:10036000E02D80818F7D80830895CF93DF93EC0112
:10037000888D8823C1F0EA89FB89808185FD05C0CD
:10038000A889B9898C9186FD0EC00FB607FCF5CF00
:10039000808185FFF2CFA889B9898C9185FFEDCF47
:1003A000CE01C2DFE8CFDF91CF910895CF92DF92E7
:1003B000FF920F931F93CF93DF931F92CDB7DEB7BA
:1003C0006C0181E0D60158968C9358975B969C916E
:1003D0005B975C968C915C97981307C05096ED9153
:1003E000FC915197808185FD2DC0F601038D10E0B1
:1003F0000F5F1F4F0F731127F02EF601848DF81237
:1004000010C00FB607FCF9CFD6015096ED91FC91C4
:100410005197808185FFF1CFC601698385DF6981AE
:10042000ECCF838DE80FF11DE35AFF4F6083D601B7
:100430005B960C935B975296ED91FC91539780815C
:1004400080620CC0D6015696ED91FC91579760835F
:100450005096ED91FC91519780818064808381E07A
:1004600090E00F90DF91CF911F910F91FF90DF905F
:10047000CF900895BF92CF92DF92EF92FF92CF93E9
:10048000DF93EC016A017B01B22EE889F98982E0F1
:100490008083411581EE58076105710599F060E090
:1004A00079E08DE390E0A7019601EED52150310966
:1004B000410951095695479537952795211580E1B2
:1004C000380790F0E889F989108260E874E88EE1D5
:1004D00090E0A7019601D8D5215031094109510971
:1004E0005695479537952795EC85FD853083EE85A4
:1004F000FF852083188EEC89FD89B082EA89FB890B
:10050000808180618083EA89FB8980818860808323
:10051000EA89FB89808180688083EA89FB89808100
:100520008F7D8083DF91CF91FF90EF90DF90CF9010
:10053000BF9008951F920F920FB60F9211240BB621
:100540000F922F938F939F93EF93FF93E0915E020F
:10055000F0915F028081E0916402F091650282FD7A
:1005600012C09081809167028F5F8F732091680223
:10057000821751F0E0916702F0E0E25BFD4F958F4A
:100580008093670201C08081FF91EF919F918F91CD
:100590002F910F900BBE0F900FBE0F901F901895CC
:1005A0001F920F920FB60F9211240BB60F922F933A
:1005B0003F934F935F936F937F938F939F93AF93EB
:1005C000BF93EF93FF938EE492E0AEDEFF91EF9145
:1005D000BF91AF919F918F917F916F915F914F915B
:1005E0003F912F910F900BBE0F900FBE0F901F9059
:1005F00018958EE492E02FDE21E0892B09F420E0AB
:10060000822F0895109251021092500288EE93E0CA
:10061000A0E0B0E08093520290935302A093540262
:10062000B093550283E392E090934F0280934E0281
:1006300085EC90E090935B0280935A0284EC90E00A
:1006400090935D0280935C0280EC90E090935F0257
:1006500080935E0281EC90E090936102809360024F
:1006600082EC90E0909363028093620286EC90E0CB
:100670009093650280936402109267021092680260
:100680001092690210926A020895CF92DF92EF925F
:10069000FF920F931F93CF93DF937C016A01EB01CD
:1006A00000E010E00C151D0571F06991D701ED9186
:1006B000FC910190F081E02DC7011995892B19F06B
:1006C0000F5F1F4FEFCFC801DF91CF911F910F91A7
:1006D000FF90EF90DF90CF9008956115710581F044
:1006E000DB010D900020E9F7AD0141505109461B97
:1006F000570BDC01ED91FC910280F381E02D199400
:1007000080E090E00895E9CFDC01ED91FC9101904B
:10071000F081E02D19946FE372E0DFCF0F931F9308
:10072000CF93DF93EC01D9DF8C01CE01F4DF800F92
:10073000911FDF91CF911F910F9108958F929F92FA
:10074000AF92BF92DF92EF92FF920F931F93CF93DE
:10075000DF93CDB7DEB7A1970FB6F894DEBF0FBE1B
:10076000CDBF7C01F42FD52ECB0119A2223008F485
:100770002AE08E010F5D1F4F822E912CA12CB12CEF
:100780006F2F7D2DA50194017FD4F22FD32ECA01A6
:10079000015011096A3014F4E0E301C0E7E3E60F09
:1007A000D801EC93232B242B252B51F7B801C7013B
:1007B00094DFA1960FB6F894DEBF0FBECDBFDF91D8
:1007C000CF911F910F91FF90EF90DF90BF90AF906E
:1007D0009F908F900895CF92DF92EF92FF920F93A8
:1007E0001F93CF93DF93EC016A017B012115310543
:1007F00079F4E881F9810190F081E02D642FDF9197
:10080000CF911F910F91FF90EF90DF90CF901994AF
:100810002A303105D9F477FF18C06DE275DF8C01FD
:1008200044275527BA014C195D096E097F092AE052
:10083000CE0184DF800F911FDF91CF911F910F9127
:10084000FF90EF90DF90CF9008952AE0B701A601C6
:10085000CE01DF91CF911F910F91FF90EF90DF902C
:10086000CF906CCF4F925F926F927F928F929F92B8
:10087000AF92BF92CF92DF92EF92FF920F931F93AE
:10088000CF93DF93EC016A017B01B22E9A01AB0199
:10089000C701B601E6D3882319F062E472E024C0F0
:1008A00026013701E89477F82FEF3FEF4FE75FE736
:1008B000C301B201D6D381110CC02FEF3FEF4FE738
:1008C0005FE7C301B20117D218161CF466E472E0A8
:1008D0000BC02FEF3FEF4FE75FE4C701B6015AD3DC
:1008E0001816A4F46AE472E0CE01DF91CF911F9153
:1008F0000F91FF90EF90DF90CF90BF90AF909F90BF
:100900008F907F906F905F904F90E7CE2FEF3FEFEB
:100910004FE75FECC701B601EED187FDE3CF20E0E2
:1009200030E0A901C701B601E6D187FF09C06DE239
:10093000CE01EADE8C01F7FAF094F7F8F09402C0E9
:1009400000E010E0A12C60E070E080E09FE3AB14D9
:1009500039F020E030E040E251E4D1D1A394F7CF68
:100960009B01AC01C701B60162D16B017C0134D29D
:100970002B013C015DD29B01AC01C701B60156D1F0
:100980006B017C012AE0B301A201CE01D7DE080F82
:10099000191FBB2031F065E172E0CE019EDE080F29
:1009A000191F7B2C772019F120E030E040E251E460
:1009B000C701B601F3D26B017C0109D24B01AA2415
:1009C00097FCA094BA2C2AE030E0B501A401CE0136
:1009D00002DF080F191FC501B4012CD29B01AC0125
:1009E000C701B60123D16B017C017A94DBCFC8012A
:1009F000DF91CF911F910F91FF90EF90DF90CF90FB
:100A0000BF90AF909F908F907F906F905F904F902E
:100A1000089528CF0F931F93CF93DF93EC0122DF2C
:100A20008C01CE0178DE800F911FDF91CF911F9155
:100A30000F9108954F925F926F927F92AF92BF9203
:100A4000CF92DF92EF92FF920F931F93CF93DF939A
:100A5000CDB7DEB729013A01621B730B840B950BEE
:100A60002A893B894C895D892A193B094C095D0912
:100A70002A8B3B8B4C8B5D8B9B01AC016A897B89FC
:100A80008C899D89F2D2E418F50806091709A80196
:100A900097011CD32A0D3B1D4C1D5D1DCA01B901D8
:100AA000DF91CF911F910F91FF90EF90DF90CF904A
:100AB000BF90AF907F906F905F904F900895089592
:100AC00053D0FDDF3FDBC8E5D1E049DB2097E9F3F8
:100AD000EFDBFBCF1F920F920FB60F9211242F93D3
:100AE0003F938F939F93AF93BF938091EC0290912C
:100AF000ED02A091EE02B091EF023091EB0223E003
:100B0000230F2D3720F40196A11DB11D05C026E845
:100B1000230F0296A11DB11D2093EB028093EC02DE
:100B20009093ED02A093EE02B093EF028091F00259
:100B30009091F102A091F202B091F3020196A11DF1
:100B4000B11D8093F0029093F102A093F202B09352
:100B5000F302BF91AF919F918F913F912F910F9091
:100B60000FBE0F901F901895789484B5826084BD55
:100B700084B5816084BD85B5826085BD85B58160A1
:100B800085BDEEE6F0E0808181608083E1E8F0E001
:100B90001082808182608083808181608083E0E830
:100BA000F0E0808181608083E1EBF0E0808184600F
:100BB0008083E0EBF0E0808181608083E1E9F0E018
:100BC000808182608083808181608083E0E9F0E0C1
:100BD000808181608083E1EAF0E0808182608083AF
:100BE000808181608083E0EAF0E0808181608083A1
:100BF000E1E2F1E080818260808380818160808396
:100C0000E0E2F1E0808181608083EAE7F0E08081CA
:100C10008460808380818260808380818160808322
:100C20008081806880831092C10008955058BB274E
:100C3000AA270ED075C166D130F06BD120F031F407
:100C40009F3F11F41EF45BC10EF4E095E7FB51C128
:100C5000E92F77D180F3BA176207730784079507E6
:100C600018F071F49EF58FC10EF4E0950B2EBA2F9B
:100C7000A02D0B01B90190010C01CA01A0011124A2
:100C8000FF27591B99F0593F50F4503E68F11A164E
:100C9000F040A22F232F342F4427585FF3CF4695DF
:100CA00037952795A795F0405395C9F77EF41F1601
:100CB000BA0B620B730B840BBAF09150A1F0FF0FCB
:100CC000BB1F661F771F881FC2F70EC0BA0F621FB7
:100CD000731F841F48F4879577956795B795F795A7
:100CE0009E3F08F0B3CF9395880F08F09927EE0F39
:100CF000979587950895D9D008F481E008950CD090
:100D00000FC107D140F0FED030F021F45F3F19F061
:100D1000F0C0511139C1F3C014D198F39923C9F32C
:100D20005523B1F3951B550BBB27AA2762177307F1
:100D3000840738F09F5F5F4F220F331F441FAA1FA5
:100D4000A9F333D00E2E3AF0E0E830D09150504065
:100D5000E695001CCAF729D0FE2F27D0660F771F13
:100D6000881FBB1F261737074807AB07B0E809F0F5
:100D7000BB0B802DBF01FF2793585F4F2AF09E3F8A
:100D8000510568F0B6C000C15F3FECF3983EDCF35C
:100D9000869577956795B795F7959F5FC9F7880F03
:100DA000911D9695879597F90895E1E0660F771F55
:100DB000881FBB1F621773078407BA0720F0621BE6
:100DC000730B840BBA0BEE1F88F7E095089504D0DF
:100DD0006894B111D9C00895BCD088F09F5790F0A5
:100DE000B92F9927B751A0F0D1F0660F771F881F50
:100DF000991F1AF0BA95C9F712C0B13081F0C3D06B
:100E0000B1E00895C0C0672F782F8827B85F39F008
:100E1000B93FCCF3869577956795B395D9F73EF4AE
:100E200090958095709561957F4F8F4F9F4F089556
:100E3000E89409C097FB3EF4909580957095619574
:100E40007F4F8F4F9F4F9923A9F0F92F96E9BB272A
:100E50009395F695879577956795B795F111F8CFA6
:100E6000FAF4BB0F11F460FF1BC06F5F7F4F8F4F11
:100E70009F4F16C0882311F096E911C0772321F007
:100E80009EE8872F762F05C0662371F096E8862F9F
:100E900070E060E02AF09A95660F771F881FDAF7F6
:100EA000880F9695879597F90895990F0008550F23
:100EB000AA0BE0E8FEEF16161706E807F907C0F0E0
:100EC00012161306E407F50798F0621B730B840BE8
:100ED000950B39F40A2661F0232B242B252B21F4C2
:100EE00008950A2609F4A140A6958FEF811D811D62
:100EF000089597F99F6780E870E060E008959FEF9C
:100F000080EC089500240A941616170618060906A0
:100F1000089500240A94121613061406050608956F
:100F2000092E0394000C11F4882352F0BB0F40F4F7
:100F3000BF2B11F460FF04C06F5F7F4F8F4F9F4F37
:100F4000089557FD9058440F551F59F05F3F71F0B9
:100F50004795880F97FB991F61F09F3F79F0879520
:100F60000895121613061406551FF2CF4695F1DFA9
:100F700008C0161617061806991FF1CF8695710539
:100F8000610508940895E894BB2766277727CB016D
:100F900097F908958ADF08F48FEF08950BD0C0CF3A
:100FA000B1DF28F0B6DF18F0952309F0A2CFA7CF64
:100FB0001124EACFC6DFA0F3959FD1F3950F50E03F
:100FC000551F629FF001729FBB27F00DB11D639FFB
:100FD000AA27F00DB11DAA1F649F6627B00DA11DA1
:100FE000661F829F2227B00DA11D621F739FB00D47
:100FF000A11D621F839FA00D611D221F749F3327B7
:10100000A00D611D231F849F600D211D822F762F4F
:101010006A2F11249F5750408AF0E1F088234AF04C
:10102000EE0FFF1FBB1F661F771F881F9150504098
:10103000A9F79E3F510570F05CCFA6CF5F3FECF360
:10104000983EDCF3869577956795B795F795E79584
:101050009F5FC1F7FE2B880F911D9695879597F995
:10106000089523DF880B990B0895DB018F939F93DD
:1010700049D0BF91AF91A29F800D911DA39F900D6C
:10108000B29F900D11240895A1E21A2EAA1BBB1B3A
:10109000FD010DC0AA1FBB1FEE1FFF1FA217B30744
:1010A000E407F50720F0A21BB30BE40BF50B661F5A
:1010B000771F881F991F1A9469F76095709580951E
:1010C00090959B01AC01BD01CF010895052E97FBC2
:1010D00016F400940FD057FD05D0D6DF07FC02D0E0
:1010E00046F408C050954095309521953F4F4F4F9D
:1010F0005F4F089590958095709561957F4F8F4FC4
:101100009F4F08950DD0A59F900DB49F900DA49F63
:10111000800D911D112408950790F691E02D1994EA
:10112000A29FB001B39FC001A39F700D811D112428
:10113000911DB29F700D811D1124911D0895F89489
:02114000FFCFDF
:1011420001000000014F70656E20616E64207265BF
:101152006164792E2E2E0056616C7565203A20004E
:10116200207C2056656C6F63697479203A200000F8
:10117200000000D60145032B0144013601B5010DE3
:0E1182000A006E616E00696E66006F76660090
:00000001FF
